{
  "contractName": "SocialMusic",
  "abi": [
    {
      "constant": true,
      "inputs": [
        {
          "internalType": "address",
          "name": "",
          "type": "address"
        }
      ],
      "name": "users",
      "outputs": [
        {
          "internalType": "bytes32",
          "name": "name",
          "type": "bytes32"
        },
        {
          "internalType": "uint256",
          "name": "age",
          "type": "uint256"
        },
        {
          "internalType": "string",
          "name": "state",
          "type": "string"
        }
      ],
      "payable": false,
      "stateMutability": "view",
      "type": "function"
    },
    {
      "constant": false,
      "inputs": [
        {
          "internalType": "string",
          "name": "_songName",
          "type": "string"
        }
      ],
      "name": "addSong",
      "outputs": [],
      "payable": false,
      "stateMutability": "nonpayable",
      "type": "function"
    },
    {
      "constant": false,
      "inputs": [
        {
          "internalType": "bytes32",
          "name": "_name",
          "type": "bytes32"
        },
        {
          "internalType": "uint256",
          "name": "_age",
          "type": "uint256"
        },
        {
          "internalType": "string",
          "name": "_state",
          "type": "string"
        }
      ],
      "name": "setup",
      "outputs": [],
      "payable": false,
      "stateMutability": "nonpayable",
      "type": "function"
    },
    {
      "constant": false,
      "inputs": [
        {
          "internalType": "address",
          "name": "_user",
          "type": "address"
        }
      ],
      "name": "follow",
      "outputs": [],
      "payable": false,
      "stateMutability": "nonpayable",
      "type": "function"
    }
  ],
  "bytecode": "0x608060405234801561001057600080fd5b50610c75806100206000396000f3fe608060405234801561001057600080fd5b506004361061004c5760003560e01c80634dbf27cc146100515780637f590f5e14610095578063996fa3a514610150578063a87430ba1461021f575b600080fd5b6100936004803603602081101561006757600080fd5b81019080803573ffffffffffffffffffffffffffffffffffffffff1690602001909291905050506102ea565b005b61014e600480360360208110156100ab57600080fd5b81019080803590602001906401000000008111156100c857600080fd5b8201836020820111156100da57600080fd5b803590602001918460018302840111640100000000831117156100fc57600080fd5b91908080601f016020809104026020016040519081016040528093929190818152602001838380828437600081840152601f19601f820116905080830192505050505050509192919290505050610435565b005b61021d6004803603606081101561016657600080fd5b8101908080359060200190929190803590602001909291908035906020019064010000000081111561019757600080fd5b8201836020820111156101a957600080fd5b803590602001918460018302840111640100000000831117156101cb57600080fd5b91908080601f016020809104026020016040519081016040528093929190818152602001838380828437600081840152601f19601f82011690508083019250505050505050919291929050505061051e565b005b6102616004803603602081101561023557600080fd5b81019080803573ffffffffffffffffffffffffffffffffffffffff169060200190929190505050610861565b6040518084815260200183815260200180602001828103825283818151815260200191508051906020019080838360005b838110156102ad578082015181840152602081019050610292565b50505050905090810190601f1680156102da5780820380516001836020036101000a031916815260200191505b5094505050505060405180910390f35b600073ffffffffffffffffffffffffffffffffffffffff168173ffffffffffffffffffffffffffffffffffffffff16141561038d576040517f08c379a00000000000000000000000000000000000000000000000000000000081526004018080602001828103825260108152602001807f7573657220697320696e76616c69642e0000000000000000000000000000000081525060200191505060405180910390fd5b6000803373ffffffffffffffffffffffffffffffffffffffff1673ffffffffffffffffffffffffffffffffffffffff1681526020019081526020016000206004018190806001815401808255809150509060018203906000526020600020016000909192909190916101000a81548173ffffffffffffffffffffffffffffffffffffffff021916908373ffffffffffffffffffffffffffffffffffffffff1602179055505050565b6000815111801561044857506064815111155b61049d576040517f08c379a0000000000000000000000000000000000000000000000000000000008152600401808060200182810382526025815260200180610c1c6025913960400191505060405180910390fd5b6000803373ffffffffffffffffffffffffffffffffffffffff1673ffffffffffffffffffffffffffffffffffffffff168152602001908152602001600020600301819080600181540180825580915050906001820390600052602060002001600090919290919091509080519060200190610519929190610923565b505050565b6000602060ff1611610598576040517f08c379a00000000000000000000000000000000000000000000000000000000081526004018080602001828103825260168152602001807f6e616d652063616e206e6f7420626520656d7074792e0000000000000000000081525060200191505060405180910390fd5b6105a06109a3565b6040518060a001604052808581526020018481526020018381526020016000803373ffffffffffffffffffffffffffffffffffffffff1673ffffffffffffffffffffffffffffffffffffffff168152602001908152602001600020600301805480602002602001604051908101604052809291908181526020016000905b828210156106da578382906000526020600020018054600181600116156101000203166002900480601f0160208091040260200160405190810160405280929190818152602001828054600181600116156101000203166002900480156106c65780601f1061069b576101008083540402835291602001916106c6565b820191906000526020600020905b8154815290600101906020018083116106a957829003601f168201915b50505050508152602001906001019061061e565b5050505081526020016000803373ffffffffffffffffffffffffffffffffffffffff1673ffffffffffffffffffffffffffffffffffffffff1681526020019081526020016000206004018054806020026020016040519081016040528092919081815260200182805480156107a457602002820191906000526020600020905b8160009054906101000a900473ffffffffffffffffffffffffffffffffffffffff1673ffffffffffffffffffffffffffffffffffffffff168152602001906001019080831161075a575b50505050508152509050806000803373ffffffffffffffffffffffffffffffffffffffff1673ffffffffffffffffffffffffffffffffffffffff1681526020019081526020016000206000820151816000015560208201518160010155604082015181600201908051906020019061081d9291906109d5565b50606082015181600301908051906020019061083a929190610a55565b506080820151816004019080519060200190610857929190610ab5565b5090505050505050565b6000602052806000526040600020600091509050806000015490806001015490806002018054600181600116156101000203166002900480601f0160208091040260200160405190810160405280929190818152602001828054600181600116156101000203166002900480156109195780601f106108ee57610100808354040283529160200191610919565b820191906000526020600020905b8154815290600101906020018083116108fc57829003601f168201915b5050505050905083565b828054600181600116156101000203166002900490600052602060002090601f016020900481019282601f1061096457805160ff1916838001178555610992565b82800160010185558215610992579182015b82811115610991578251825591602001919060010190610976565b5b50905061099f9190610b3f565b5090565b6040518060a0016040528060008019168152602001600081526020016060815260200160608152602001606081525090565b828054600181600116156101000203166002900490600052602060002090601f016020900481019282601f10610a1657805160ff1916838001178555610a44565b82800160010185558215610a44579182015b82811115610a43578251825591602001919060010190610a28565b5b509050610a519190610b3f565b5090565b828054828255906000526020600020908101928215610aa4579160200282015b82811115610aa3578251829080519060200190610a939291906109d5565b5091602001919060010190610a75565b5b509050610ab19190610b64565b5090565b828054828255906000526020600020908101928215610b2e579160200282015b82811115610b2d5782518260006101000a81548173ffffffffffffffffffffffffffffffffffffffff021916908373ffffffffffffffffffffffffffffffffffffffff16021790555091602001919060010190610ad5565b5b509050610b3b9190610b90565b5090565b610b6191905b80821115610b5d576000816000905550600101610b45565b5090565b90565b610b8d91905b80821115610b895760008181610b809190610bd3565b50600101610b6a565b5090565b90565b610bd091905b80821115610bcc57600081816101000a81549073ffffffffffffffffffffffffffffffffffffffff021916905550600101610b96565b5090565b90565b50805460018160011615610100020316600290046000825580601f10610bf95750610c18565b601f016020900490600052602060002090810190610c179190610b3f565b5b5056fe536f6e67206e616d652773206c656e677468206d75737420626520696e2031202d20313030a265627a7a723158206d7fd660cd701db3966c0e719cdd4c47f63fbce12727b6c58d4f55a887a3eb4764736f6c63430005100032",
  "source": "// SPDX-License-Identifier: MIT\npragma solidity >=0.4.21 <0.7.0;\n\ncontract SocialMusic {\n    struct User {\n        bytes32 name;\n        uint256 age;\n        string state;\n        string[] musicRecommendations;\n        address[] following;\n    }\n\n    mapping(address => User) public users;\n\n    function addSong(string memory _songName) public {\n        require(\n            bytes(_songName).length > 0 && bytes(_songName).length <= 100,\n            \"Song name's length must be in 1 - 100\"\n        );\n        users[msg.sender].musicRecommendations.push(_songName);\n    }\n\n    function setup(\n        bytes32 _name,\n        uint256 _age,\n        string memory _state\n    ) public {\n        require(_name.length > 0, \"name can not be empty.\");\n        User memory newUser = User(\n            _name,\n            _age,\n            _state,\n            users[msg.sender].musicRecommendations,\n            users[msg.sender].following\n        );\n        users[msg.sender] = newUser;\n    }\n\n    function follow(address _user) public{\n      require(_user != address(0), \"user is invalid.\");\n      users[msg.sender].following.push(_user);\n    }\n\n    \n}\n",
  "sourcePath": "/Users/shibaoxu/Documents/dev/dapp/contracts/contracts/SocialMusic.sol",
  "compiler": {
    "name": "solc",
    "version": "0.5.16+commit.9c3226ce.Emscripten.clang"
  },
  "schemaVersion": "3.2.0",
  "updatedAt": "2020-06-27T13:06:46.654Z",
  "networkType": "ethereum",
  "devdoc": {
    "methods": {}
  },
  "userdoc": {
    "methods": {}
  }
}