{
  "contractName": "SocialMusic",
  "abi": [
    {
      "constant": true,
      "inputs": [
        {
          "internalType": "uint256",
          "name": "",
          "type": "uint256"
        }
      ],
      "name": "userList",
      "outputs": [
        {
          "internalType": "address",
          "name": "",
          "type": "address"
        }
      ],
      "payable": false,
      "stateMutability": "view",
      "type": "function"
    },
    {
      "constant": true,
      "inputs": [
        {
          "internalType": "address",
          "name": "",
          "type": "address"
        }
      ],
      "name": "users",
      "outputs": [
        {
          "internalType": "string",
          "name": "name",
          "type": "string"
        },
        {
          "internalType": "uint256",
          "name": "age",
          "type": "uint256"
        },
        {
          "internalType": "string",
          "name": "state",
          "type": "string"
        }
      ],
      "payable": false,
      "stateMutability": "view",
      "type": "function"
    },
    {
      "constant": false,
      "inputs": [
        {
          "internalType": "string",
          "name": "_songName",
          "type": "string"
        }
      ],
      "name": "addSong",
      "outputs": [],
      "payable": false,
      "stateMutability": "nonpayable",
      "type": "function"
    },
    {
      "constant": false,
      "inputs": [
        {
          "internalType": "string",
          "name": "_name",
          "type": "string"
        },
        {
          "internalType": "uint256",
          "name": "_age",
          "type": "uint256"
        },
        {
          "internalType": "string",
          "name": "_state",
          "type": "string"
        }
      ],
      "name": "initialAccount",
      "outputs": [],
      "payable": false,
      "stateMutability": "nonpayable",
      "type": "function"
    },
    {
      "constant": false,
      "inputs": [
        {
          "internalType": "address",
          "name": "_user",
          "type": "address"
        }
      ],
      "name": "follow",
      "outputs": [],
      "payable": false,
      "stateMutability": "nonpayable",
      "type": "function"
    },
    {
      "constant": true,
      "inputs": [],
      "name": "getUsersList",
      "outputs": [
        {
          "internalType": "address[]",
          "name": "",
          "type": "address[]"
        }
      ],
      "payable": false,
      "stateMutability": "view",
      "type": "function"
    },
    {
      "constant": true,
      "inputs": [
        {
          "internalType": "address",
          "name": "_user",
          "type": "address"
        },
        {
          "internalType": "uint256",
          "name": "_recommendationIndex",
          "type": "uint256"
        }
      ],
      "name": "getUsersMusicRecommendation",
      "outputs": [
        {
          "internalType": "string",
          "name": "",
          "type": "string"
        }
      ],
      "payable": false,
      "stateMutability": "view",
      "type": "function"
    },
    {
      "constant": true,
      "inputs": [
        {
          "internalType": "address",
          "name": "_user",
          "type": "address"
        }
      ],
      "name": "getUsersMusicRecommendationLength",
      "outputs": [
        {
          "internalType": "uint256",
          "name": "",
          "type": "uint256"
        }
      ],
      "payable": false,
      "stateMutability": "view",
      "type": "function"
    },
    {
      "constant": true,
      "inputs": [
        {
          "internalType": "address",
          "name": "_user",
          "type": "address"
        }
      ],
      "name": "getUsersFollowings",
      "outputs": [
        {
          "internalType": "address[]",
          "name": "",
          "type": "address[]"
        }
      ],
      "payable": false,
      "stateMutability": "view",
      "type": "function"
    }
  ],
  "bytecode": "0x608060405234801561001057600080fd5b5061141e806100206000396000f3fe608060405234801561001057600080fd5b50600436106100935760003560e01c8063971c6c7f11610066578063971c6c7f146103ba5780639f4216e814610412578063a87430ba14610480578063c74e13f3146105b0578063ebf072481461060f57610093565b80631e6abbb1146100985780634dbf27cc1461015f57806364797ec2146101a35780637f590f5e146102ff575b600080fd5b6100e4600480360360408110156100ae57600080fd5b81019080803573ffffffffffffffffffffffffffffffffffffffff169060200190929190803590602001909291905050506106a8565b6040518080602001828103825283818151815260200191508051906020019080838360005b83811015610124578082015181840152602081019050610109565b50505050905090810190601f1680156101515780820380516001836020036101000a031916815260200191505b509250505060405180910390f35b6101a16004803603602081101561017557600080fd5b81019080803573ffffffffffffffffffffffffffffffffffffffff1690602001909291905050506107a1565b005b6102fd600480360360608110156101b957600080fd5b81019080803590602001906401000000008111156101d657600080fd5b8201836020820111156101e857600080fd5b8035906020019184600183028401116401000000008311171561020a57600080fd5b91908080601f016020809104026020016040519081016040528093929190818152602001838380828437600081840152601f19601f820116905080830192505050505050509192919290803590602001909291908035906020019064010000000081111561027757600080fd5b82018360208201111561028957600080fd5b803590602001918460018302840111640100000000831117156102ab57600080fd5b91908080601f016020809104026020016040519081016040528093929190818152602001838380828437600081840152601f19601f8201169050808301925050505050505091929192905050506108ec565b005b6103b86004803603602081101561031557600080fd5b810190808035906020019064010000000081111561033257600080fd5b82018360208201111561034457600080fd5b8035906020019184600183028401116401000000008311171561036657600080fd5b91908080601f016020809104026020016040519081016040528093929190818152602001838380828437600081840152601f19601f820116905080830192505050505050509192919290505050610ca5565b005b6103fc600480360360208110156103d057600080fd5b81019080803573ffffffffffffffffffffffffffffffffffffffff169060200190929190505050610d8e565b6040518082815260200191505060405180910390f35b61043e6004803603602081101561042857600080fd5b8101908080359060200190929190505050610ddc565b604051808273ffffffffffffffffffffffffffffffffffffffff1673ffffffffffffffffffffffffffffffffffffffff16815260200191505060405180910390f35b6104c26004803603602081101561049657600080fd5b81019080803573ffffffffffffffffffffffffffffffffffffffff169060200190929190505050610e18565b604051808060200184815260200180602001838103835286818151815260200191508051906020019080838360005b8381101561050c5780820151818401526020810190506104f1565b50505050905090810190601f1680156105395780820380516001836020036101000a031916815260200191505b50838103825284818151815260200191508051906020019080838360005b83811015610572578082015181840152602081019050610557565b50505050905090810190601f16801561059f5780820380516001836020036101000a031916815260200191505b509550505050505060405180910390f35b6105b8610f72565b6040518080602001828103825283818151815260200191508051906020019060200280838360005b838110156105fb5780820151818401526020810190506105e0565b505050509050019250505060405180910390f35b6106516004803603602081101561062557600080fd5b81019080803573ffffffffffffffffffffffffffffffffffffffff169060200190929190505050611000565b6040518080602001828103825283818151815260200191508051906020019060200280838360005b83811015610694578082015181840152602081019050610679565b505050509050019250505060405180910390f35b60606000808473ffffffffffffffffffffffffffffffffffffffff1673ffffffffffffffffffffffffffffffffffffffff16815260200190815260200160002060030182815481106106f657fe5b906000526020600020018054600181600116156101000203166002900480601f0160208091040260200160405190810160405280929190818152602001828054600181600116156101000203166002900480156107945780601f1061076957610100808354040283529160200191610794565b820191906000526020600020905b81548152906001019060200180831161077757829003601f168201915b5050505050905092915050565b600073ffffffffffffffffffffffffffffffffffffffff168173ffffffffffffffffffffffffffffffffffffffff161415610844576040517f08c379a00000000000000000000000000000000000000000000000000000000081526004018080602001828103825260108152602001807f7573657220697320696e76616c69642e0000000000000000000000000000000081525060200191505060405180910390fd5b6000803373ffffffffffffffffffffffffffffffffffffffff1673ffffffffffffffffffffffffffffffffffffffff1681526020019081526020016000206004018190806001815401808255809150509060018203906000526020600020016000909192909190916101000a81548173ffffffffffffffffffffffffffffffffffffffff021916908373ffffffffffffffffffffffffffffffffffffffff1602179055505050565b6000835111610963576040517f08c379a00000000000000000000000000000000000000000000000000000000081526004018080602001828103825260168152602001807f6e616d652063616e206e6f7420626520656d7074792e0000000000000000000081525060200191505060405180910390fd5b61096b6110cf565b6040518060a001604052808581526020018481526020018381526020016000803373ffffffffffffffffffffffffffffffffffffffff1673ffffffffffffffffffffffffffffffffffffffff168152602001908152602001600020600301805480602002602001604051908101604052809291908181526020016000905b82821015610aa5578382906000526020600020018054600181600116156101000203166002900480601f016020809104026020016040519081016040528092919081815260200182805460018160011615610100020316600290048015610a915780601f10610a6657610100808354040283529160200191610a91565b820191906000526020600020905b815481529060010190602001808311610a7457829003601f168201915b5050505050815260200190600101906109e9565b5050505081526020016000803373ffffffffffffffffffffffffffffffffffffffff1673ffffffffffffffffffffffffffffffffffffffff168152602001908152602001600020600401805480602002602001604051908101604052809291908181526020018280548015610b6f57602002820191906000526020600020905b8160009054906101000a900473ffffffffffffffffffffffffffffffffffffffff1673ffffffffffffffffffffffffffffffffffffffff1681526020019060010190808311610b25575b50505050508152509050806000803373ffffffffffffffffffffffffffffffffffffffff1673ffffffffffffffffffffffffffffffffffffffff1681526020019081526020016000206000820151816000019080519060200190610bd49291906110fe565b50602082015181600101556040820151816002019080519060200190610bfb9291906110fe565b506060820151816003019080519060200190610c1892919061117e565b506080820151816004019080519060200190610c359291906111de565b5090505060013390806001815401808255809150509060018203906000526020600020016000909192909190916101000a81548173ffffffffffffffffffffffffffffffffffffffff021916908373ffffffffffffffffffffffffffffffffffffffff1602179055505050505050565b60008151118015610cb857506064815111155b610d0d576040517f08c379a00000000000000000000000000000000000000000000000000000000081526004018080602001828103825260258152602001806113c56025913960400191505060405180910390fd5b6000803373ffffffffffffffffffffffffffffffffffffffff1673ffffffffffffffffffffffffffffffffffffffff168152602001908152602001600020600301819080600181540180825580915050906001820390600052602060002001600090919290919091509080519060200190610d89929190611268565b505050565b60008060008373ffffffffffffffffffffffffffffffffffffffff1673ffffffffffffffffffffffffffffffffffffffff168152602001908152602001600020600301805490509050919050565b60018181548110610de957fe5b906000526020600020016000915054906101000a900473ffffffffffffffffffffffffffffffffffffffff1681565b6000602052806000526040600020600091509050806000018054600181600116156101000203166002900480601f016020809104026020016040519081016040528092919081815260200182805460018160011615610100020316600290048015610ec45780601f10610e9957610100808354040283529160200191610ec4565b820191906000526020600020905b815481529060010190602001808311610ea757829003601f168201915b505050505090806001015490806002018054600181600116156101000203166002900480601f016020809104026020016040519081016040528092919081815260200182805460018160011615610100020316600290048015610f685780601f10610f3d57610100808354040283529160200191610f68565b820191906000526020600020905b815481529060010190602001808311610f4b57829003601f168201915b5050505050905083565b60606001805480602002602001604051908101604052809291908181526020018280548015610ff657602002820191906000526020600020905b8160009054906101000a900473ffffffffffffffffffffffffffffffffffffffff1673ffffffffffffffffffffffffffffffffffffffff1681526020019060010190808311610fac575b5050505050905090565b60606000808373ffffffffffffffffffffffffffffffffffffffff1673ffffffffffffffffffffffffffffffffffffffff1681526020019081526020016000206004018054806020026020016040519081016040528092919081815260200182805480156110c357602002820191906000526020600020905b8160009054906101000a900473ffffffffffffffffffffffffffffffffffffffff1673ffffffffffffffffffffffffffffffffffffffff1681526020019060010190808311611079575b50505050509050919050565b6040518060a0016040528060608152602001600081526020016060815260200160608152602001606081525090565b828054600181600116156101000203166002900490600052602060002090601f016020900481019282601f1061113f57805160ff191683800117855561116d565b8280016001018555821561116d579182015b8281111561116c578251825591602001919060010190611151565b5b50905061117a91906112e8565b5090565b8280548282559060005260206000209081019282156111cd579160200282015b828111156111cc5782518290805190602001906111bc9291906110fe565b509160200191906001019061119e565b5b5090506111da919061130d565b5090565b828054828255906000526020600020908101928215611257579160200282015b828111156112565782518260006101000a81548173ffffffffffffffffffffffffffffffffffffffff021916908373ffffffffffffffffffffffffffffffffffffffff160217905550916020019190600101906111fe565b5b5090506112649190611339565b5090565b828054600181600116156101000203166002900490600052602060002090601f016020900481019282601f106112a957805160ff19168380011785556112d7565b828001600101855582156112d7579182015b828111156112d65782518255916020019190600101906112bb565b5b5090506112e491906112e8565b5090565b61130a91905b808211156113065760008160009055506001016112ee565b5090565b90565b61133691905b808211156113325760008181611329919061137c565b50600101611313565b5090565b90565b61137991905b8082111561137557600081816101000a81549073ffffffffffffffffffffffffffffffffffffffff02191690555060010161133f565b5090565b90565b50805460018160011615610100020316600290046000825580601f106113a257506113c1565b601f0160209004906000526020600020908101906113c091906112e8565b5b5056fe536f6e67206e616d652773206c656e677468206d75737420626520696e2031202d20313030a265627a7a72315820ddfc82e811d02cd99b887e30d9ddb787a210b4c2d6e50a0f44944c001455806f64736f6c63430005100032",
  "source": "// SPDX-License-Identifier: MIT\npragma solidity >=0.4.21 <0.7.0;\n\ncontract SocialMusic {\n    struct User {\n        string name;\n        uint256 age;\n        string state;\n        string[] musicRecommendations;\n        address[] following;\n    }\n\n    mapping(address => User) public users;\n    address[] public userList;\n\n    function addSong(string memory _songName) public {\n        require(\n            bytes(_songName).length > 0 && bytes(_songName).length <= 100,\n            \"Song name's length must be in 1 - 100\"\n        );\n        users[msg.sender].musicRecommendations.push(_songName);\n    }\n\n    function initialAccount(\n        string memory _name,\n        uint256 _age,\n        string memory _state\n    ) public {\n        require(bytes(_name).length > 0, \"name can not be empty.\");\n        User memory newUser = User(\n            _name,\n            _age,\n            _state,\n            users[msg.sender].musicRecommendations,\n            users[msg.sender].following\n        );\n        users[msg.sender] = newUser;\n        userList.push(msg.sender);\n    }\n\n    function follow(address _user) public{\n      require(_user != address(0), \"user is invalid.\");\n      users[msg.sender].following.push(_user);\n    }\n\n    function getUsersList() public view returns (address[] memory){\n        return userList;\n    }\n\n    function getUsersMusicRecommendation(address _user, uint256 _recommendationIndex) public view returns(string memory){\n        return users[_user].musicRecommendations[_recommendationIndex];\n    }\n\n    function getUsersMusicRecommendationLength(address  _user) public view returns (uint256){\n        return users[_user].musicRecommendations.length;\n    }\n\n    function getUsersFollowings(address _user) public view returns (address[] memory){\n        return users[_user].following;\n    }\n}",
  "sourcePath": "/Users/shibaoxu/dev/learning/dapp/contracts/contracts/SocialMusic.sol",
  "compiler": {
    "name": "solc",
    "version": "0.5.16+commit.9c3226ce.Emscripten.clang"
  },
  "schemaVersion": "3.2.0",
  "updatedAt": "2020-07-02T15:56:09.377Z",
  "networkType": "ethereum",
  "devdoc": {
    "methods": {}
  },
  "userdoc": {
    "methods": {}
  }
}